:100000000C9453000C947B000C947B000C947B00AC
:100010000C947B000C947B000C947B000C947B0074
:100020000C947B000C947B000C947B000C947B0064
:100030000C947B000C947B000C947B000C947B0054
:100040000C948A010C947B000C94FA010C94D4015A
:100050000C947B000C947B000C947B000C947B0034
:100060000C947B000C947B0000000000250028000D
:100070002B0000000000240027002A0004040404D0
:100080000404040402020202020203030303030342
:10009000010204081020408001020408102001021F
:1000A00004081020DA0211241FBECFEFD8E0DEBF13
:1000B000CDBF11E0A0E0B1E0EEE1F6E002C00590B6
:1000C0000D92A032B107D9F721E0A0E2B1E001C062
:1000D0001D92A63CB207E1F710E0C3E5D0E004C0F2
:1000E0002197FE010E940703C235D107C9F70E947C
:1000F0002C020C940D030C940000AF92BF92CF928F
:10010000DF92EF92FF920F931F93CF93DF936C01D7
:100110007B018B01040F151FEB015E01AE18BF08B8
:10012000C017D10759F06991D601ED91FC9101906A
:10013000F081E02DC6010995892B79F7C501DF9182
:10014000CF911F910F91FF90EF90DF90CF90BF90D4
:10015000AF900895FC01538D448D252F30E0842FFE
:1001600090E0821B930B541710F0CF9608950197DF
:100170000895FC01918D828D981761F0A28DAE0FCC
:10018000BF2FB11D5D968C91928D9F5F9F73928F53
:1001900090E008958FEF9FEF0895FC01918D828D7F
:1001A000981731F0828DE80FF11D858D90E008954C
:1001B0008FEF9FEF0895FC01918D228D892F90E0A4
:1001C000805C9F4F821B91098F739927089580E26D
:1001D00091E00E94DB0021E0892B09F420E0822FCE
:1001E000089580E090E0892B29F00E94E7008111BA
:1001F0000C9400000895FC01A48DA80FB92FB11D27
:10020000A35ABF4F2C91848D90E001968F7399274C
:10021000848FA689B7892C93A089B1898C9183702A
:1002200080648C93938D848D981306C00288F38923
:10023000E02D80818F7D80830895EF92FF920F9350
:100240001F93CF93DF93EC0181E0888F9B8D8C8D82
:1002500098131AC0E889F989808185FF15C09FB776
:10026000F894EE89FF896083E889F9898081837039
:10027000806480839FBF81E090E0DF91CF911F91E8
:100280000F91FF90EF900895F62E0B8D10E00F5F09
:100290001F4F0F731127E02E8C8D8E110CC00FB6DF
:1002A00007FCFACFE889F989808185FFF5CFCE0177
:1002B0000E94FB00F1CFEB8DEC0FFD2FF11DE35AF7
:1002C000FF4FF0829FB7F8940B8FEA89FB898081FA
:1002D0008062CFCFCF93DF93EC01888D8823B9F074
:1002E000AA89BB89E889F9898C9185FD03C0808141
:1002F00086FD0DC00FB607FCF7CF8C9185FFF2CFBE
:10030000808185FFEDCFCE010E94FB00E9CFDF9118
:10031000CF9108951F920F920FB60F9211242F9331
:100320003F938F939F93AF93BF938091C20190911E
:10033000C301A091C401B091C5013091C10123E076
:10034000230F2D3758F50196A11DB11D2093C10132
:100350008093C2019093C301A093C401B093C501DF
:100360008091BD019091BE01A091BF01B091C001EB
:100370000196A11DB11D8093BD019093BE01A09374
:10038000BF01B093C001BF91AF919F918F913F91F9
:100390002F910F900FBE0F901F90189526E8230FF6
:1003A0000296A11DB11DD2CF1F920F920FB60F92D0
:1003B00011242F933F934F935F936F937F938F936A
:1003C0009F93AF93BF93EF93FF9380E291E00E94DE
:1003D000FB00FF91EF91BF91AF919F918F917F9122
:1003E0006F915F914F913F912F910F900FBE0F90A2
:1003F0001F9018951F920F920FB60F9211242F93F2
:100400008F939F93EF93FF93E0913001F09131012F
:100410008081E0913601F091370182FD1BC090810F
:10042000809139018F5F8F7320913A01821741F0DB
:10043000E0913901F0E0E05EFE4F958F8093390145
:10044000FF91EF919F918F912F910F900FBE0F9081
:100450001F9018958081F4CF789484B5826084BD14
:1004600084B5816084BD85B5826085BD85B58160B8
:1004700085BD80916E00816080936E001092810036
:1004800080918100826080938100809181008160F1
:1004900080938100809180008160809380008091B2
:1004A000B10084608093B1008091B000816080933E
:1004B000B00080917A00846080937A0080917A0005
:1004C000826080937A0080917A00816080937A00C4
:1004D00080917A00806880937A001092C100E8E9E8
:1004E000F0E02491E4E8F0E08491882399F090E032
:1004F000880F991FFC01EE58FF4FA591B491FC01A4
:10050000E859FF4F859194918FB7F894EC91E22BC5
:10051000EC938FBFE0913001F091310182E0808354
:10052000E0912C01F0912D011082E0912E01F091CB
:100530002F018FEC808310923801E0913401F0910B
:10054000350186E08083E0913201F09133018081B2
:1005500080618083E0913201F09133018081886075
:100560008083E0913201F091330180818068808343
:10057000E0913201F091330180818F7D808349E0E9
:1005800050E062E171E080E291E00E947D0042E093
:1005900050E06CE171E080E291E00E947D00C0E0FB
:1005A000D0E02097F1F30E94E7008823D1F30E9466
:1005B0000000F7CFE0E2F1E01382128288EE93E0D0
:1005C000A0E0B0E084839583A683B78384E091E0C4
:1005D0009183808385EC90E09587848784EC90E01C
:1005E0009787868780EC90E0918B808B81EC90E000
:1005F000938B828B82EC90E0958B848B86EC90E0E1
:10060000978B868B118E128E138E148E0895EE0F9B
:0E061000FF1F0590F491E02D0994F894FFCFA0
:10061E00000000001D017D00AA006A01DB00B90088
:10062E00CD0048656C6C6F204D4454000D0A0000DF
:00000001FF
