:100000000C9462000C948A000C948A000C948A0070
:100010000C948A000C948A000C948A000C948A0038
:100020000C948A000C948A000C948A000C948A0028
:100030000C948A000C948A000C948A000C948A0018
:100040000C9467020C948A000C948A000C948A0029
:100050000C948A000C948A000C948A000C948A00F8
:100060000C948A000C948A000000000024002700F1
:100070002A0000000000250028002B0000000000DE
:1000800023002600290004040404040404040202DA
:100090000202020203030303030301020408102007
:1000A0004080010204081020010204081020000012
:1000B0000008000201000003040700000000000027
:1000C0000000540311241FBECFEFD8E0DEBFCDBF28
:1000D00011E0A0E0B1E0E4EEF6E002C005900D9280
:1000E000A037B107D9F721E0A0E7B1E001C01D9228
:1000F000A138B207E1F710E0C2E6D0E004C02197D2
:10010000FE010E946A03C136D107C9F70E94B102FD
:100110000C9470030C940000833081F028F481303B
:1001200099F08230A9F008958730A9F08830C9F09D
:100130008430B1F4809180008F7D03C08091800075
:100140008F7780938000089584B58F7784BD08955C
:1001500084B58F7DFBCF8091B0008F778093B00006
:1001600008958091B0008F7DF9CF1F93CF93DF93D7
:10017000282F30E0F901E255FF4F8491F901E6564E
:10018000FF4FD491F901EA57FF4FC491CC23A9F056
:10019000162F81110E948C00EC2FF0E0EE0FFF1F54
:1001A000EE58FF4FA591B4918FB7F894EC911111CF
:1001B00008C0D095DE23DC938FBFDF91CF911F91D4
:1001C0000895DE2BF8CFCF93DF93C9E7D1E060E04D
:1001D0008E810E94B50060E08F810E94B50061E0D1
:1001E0008E810E94B50061E08F81DF91CF910C94E8
:1001F000B500CF93DF93C9E7D1E061E08E810E9423
:10020000B50061E08F810E94B50060E08F810E949F
:10021000B50060E08E81DF91CF910C94B500CF9353
:10022000DF9390E0FC01E656FF4F24918A579F4FE1
:10023000FC0184918823D1F090E0880F991FFC0184
:10024000E859FF4FA591B491FC01EE58FF4FC591BD
:10025000D49161110EC09FB7F8948C91E22FE09574
:100260008E238C932881E223E8839FBFDF91CF9177
:1002700008958FB7F894EC91E22BEC938FBFF6CFF3
:100280000F931F93CF93DF93D82FC8E060E0809146
:100290007F010E94B5000D2F0D2E000C110B61E0A7
:1002A000D0FF60E0809180010E94B5001595079510
:1002B000D02F61E080917F010E94B500C15031F7DD
:1002C00060E080917F010E94B50061E08091800133
:1002D0000E94B50061E080917F010E94B50060E05E
:1002E000809180010E940F0183EC90E00197F1F76B
:1002F0002091800130E0F901E255FF4F8491F9012E
:10030000E656FF4FD491F901EA57FF4FC491CC2331
:1003100081F181110E948C00EC2FF0E0EE0FFF1FA5
:10032000E458FF4FA591B491EC91ED23C1E0D0E0EA
:1003300009F4C0E0C1110AC061E0809180010E940F
:100340000F0160E0809180010E94B50003EC10E095
:10035000C8010197F1F761E0809180010E940F01CF
:10036000C8010197F1F7CE01DF91CF911F910F9155
:100370000895C0E0D0E0E0CFCF93DF93D82FE62FF1
:100380006F37D9F1603140F50E2E000CFF0BE55AA6
:10039000FE4F808190917C01C0E09111C0E8C80FB0
:1003A0000E94F90084E40E9440010E94E3000E9440
:1003B000F9008D2F806C0E9440018C2F0E9440011B
:1003C0000E94E3000E94F90080917B010E9440019D
:1003D000DF91CF910C94E30080ED860F8A3030F4EA
:1003E0000E2E000CFF0BE55DFE4FD3CFE052EB3538
:1003F00020F4F0E0E050FF4FCCCF80E0CBCF6FE7B0
:1004000080E00E94BC016FE781E00E94BC016FE7C1
:1004100082E00E94BC016FE783E00C94BC013FB70F
:10042000F8948091750190917601A0917701B09137
:10043000780126B5A89B05C02F3F19F00196A11D94
:10044000B11D3FBFBA2FA92F982F8827BC01CD011E
:10045000620F711D811D911D42E0660F771F881F7D
:10046000991F4A95D1F708958F929F92AF92BF92AC
:10047000CF92DF92EF92FF926B017C010E940F02FC
:100480004B015C01C114D104E104F104B9F00E94F4
:100490000F02681979098A099B09683E7340810532
:1004A000910580F321E0C21AD108E108F10888EE35
:1004B000880E83E0981EA11CB11CE4CFFF90EF9042
:1004C000DF90CF90BF90AF909F908F9008951F9234
:1004D0000F920FB60F9211242F933F938F939F93F8
:1004E000AF93BF938091710190917201A0917301BC
:1004F000B09174013091700123E0230F2D3758F52E
:100500000196A11DB11D20937001809371019093FC
:100510007201A0937301B093740180917501909161
:100520007601A0917701B09178010196A11DB11DCE
:100530008093750190937601A0937701B093780131
:10054000BF91AF919F918F913F912F910F900FBECF
:100550000F901F90189526E8230F0296A11DB11D3C
:10056000D2CF789484B5826084BD84B5816084BD27
:1005700085B5826085BD85B5816085BD80916E0041
:10058000816080936E001092810080918100826072
:1005900080938100809181008160809381008091AF
:1005A00080008160809380008091B100846080939E
:1005B000B1008091B00081608093B00080917A009A
:1005C000846080937A0080917A00826080937A00C0
:1005D00080917A00816080937A0080917A008068AF
:1005E00080937A001092C1000E94FF0180E4809302
:1005F000790180EC80937A018FE880937B018BE610
:10060000E82E81E0F82ED0E0C0E080917D0190914D
:100610007E01C430D10561F1C817D907FCF064EF41
:1006200071E080E090E00E9434026E0110E000E092
:1006300080917D0190917E012FEFC21AD20A081796
:1006400019078CF4F601E81BF90BE559FE4F6081A0
:10065000802F0E94BC010F5F1F4FEACFF70160811E
:100660008C2F0E94BC012196FFEFEF1AFF0ACDCF1D
:1006700080917D0190917E01C817D90734F46FE70E
:100680008C2F0E94BC012196F3CF60E273E080E0E2
:1006900090E00E9434020E94FF01C0E0D0E0209769
:1006A000F1F30E940000FBCFCF93DF93C9E7D1E0C5
:1006B00084E090E09D838C8381E18E8380E18F8351
:1006C00061E081E10E940F0161E08F81DF91CF91B4
:1006D0000C940F01EE0FFF1F0590F491E02D09948B
:0406E000F894FFCFBC
:1006E4000000000000000000000063000040000063
:1006F40000000000000000000000000000000000F6
:1007040000777C395E79713576061E753837545C0E
:10071400737B506D781C3E7E766E1B0000000108D2
:10072400005F7C585E797135740416753837545CF3
:100734007367506D781C3E2A766E1B3F065B4F66CE
:100744006D7D077F6F777C395E7971303030300092
:00000001FF
